{
  "_format": "hh-sol-artifact-1",
  "contractName": "Web3Mint",
  "sourceName": "contracts/Web3Mint.sol",
  "abi": [
    {
      "inputs": [],
      "stateMutability": "nonpayable",
      "type": "constructor"
    },
    {
      "anonymous": false,
      "inputs": [
        {
          "indexed": true,
          "internalType": "address",
          "name": "owner",
          "type": "address"
        },
        {
          "indexed": true,
          "internalType": "address",
          "name": "approved",
          "type": "address"
        },
        {
          "indexed": true,
          "internalType": "uint256",
          "name": "tokenId",
          "type": "uint256"
        }
      ],
      "name": "Approval",
      "type": "event"
    },
    {
      "anonymous": false,
      "inputs": [
        {
          "indexed": true,
          "internalType": "address",
          "name": "owner",
          "type": "address"
        },
        {
          "indexed": true,
          "internalType": "address",
          "name": "operator",
          "type": "address"
        },
        {
          "indexed": false,
          "internalType": "bool",
          "name": "approved",
          "type": "bool"
        }
      ],
      "name": "ApprovalForAll",
      "type": "event"
    },
    {
      "anonymous": false,
      "inputs": [
        {
          "indexed": true,
          "internalType": "address",
          "name": "from",
          "type": "address"
        },
        {
          "indexed": true,
          "internalType": "address",
          "name": "to",
          "type": "address"
        },
        {
          "indexed": true,
          "internalType": "uint256",
          "name": "tokenId",
          "type": "uint256"
        }
      ],
      "name": "Transfer",
      "type": "event"
    },
    {
      "inputs": [
        {
          "internalType": "address",
          "name": "to",
          "type": "address"
        },
        {
          "internalType": "uint256",
          "name": "tokenId",
          "type": "uint256"
        }
      ],
      "name": "approve",
      "outputs": [],
      "stateMutability": "nonpayable",
      "type": "function"
    },
    {
      "inputs": [
        {
          "internalType": "address",
          "name": "owner",
          "type": "address"
        }
      ],
      "name": "balanceOf",
      "outputs": [
        {
          "internalType": "uint256",
          "name": "",
          "type": "uint256"
        }
      ],
      "stateMutability": "view",
      "type": "function"
    },
    {
      "inputs": [
        {
          "internalType": "uint256",
          "name": "tokenId",
          "type": "uint256"
        }
      ],
      "name": "getApproved",
      "outputs": [
        {
          "internalType": "address",
          "name": "",
          "type": "address"
        }
      ],
      "stateMutability": "view",
      "type": "function"
    },
    {
      "inputs": [
        {
          "internalType": "address",
          "name": "owner",
          "type": "address"
        },
        {
          "internalType": "address",
          "name": "operator",
          "type": "address"
        }
      ],
      "name": "isApprovedForAll",
      "outputs": [
        {
          "internalType": "bool",
          "name": "",
          "type": "bool"
        }
      ],
      "stateMutability": "view",
      "type": "function"
    },
    {
      "inputs": [
        {
          "internalType": "string",
          "name": "name",
          "type": "string"
        },
        {
          "internalType": "string",
          "name": "description",
          "type": "string"
        },
        {
          "internalType": "string",
          "name": "imageURI",
          "type": "string"
        },
        {
          "internalType": "string",
          "name": "seed",
          "type": "string"
        },
        {
          "internalType": "string",
          "name": "height",
          "type": "string"
        },
        {
          "internalType": "string",
          "name": "width",
          "type": "string"
        }
      ],
      "name": "mintIpfsNFT",
      "outputs": [],
      "stateMutability": "nonpayable",
      "type": "function"
    },
    {
      "inputs": [],
      "name": "name",
      "outputs": [
        {
          "internalType": "string",
          "name": "",
          "type": "string"
        }
      ],
      "stateMutability": "view",
      "type": "function"
    },
    {
      "inputs": [
        {
          "internalType": "uint256",
          "name": "tokenId",
          "type": "uint256"
        }
      ],
      "name": "ownerOf",
      "outputs": [
        {
          "internalType": "address",
          "name": "",
          "type": "address"
        }
      ],
      "stateMutability": "view",
      "type": "function"
    },
    {
      "inputs": [
        {
          "internalType": "address",
          "name": "from",
          "type": "address"
        },
        {
          "internalType": "address",
          "name": "to",
          "type": "address"
        },
        {
          "internalType": "uint256",
          "name": "tokenId",
          "type": "uint256"
        }
      ],
      "name": "safeTransferFrom",
      "outputs": [],
      "stateMutability": "nonpayable",
      "type": "function"
    },
    {
      "inputs": [
        {
          "internalType": "address",
          "name": "from",
          "type": "address"
        },
        {
          "internalType": "address",
          "name": "to",
          "type": "address"
        },
        {
          "internalType": "uint256",
          "name": "tokenId",
          "type": "uint256"
        },
        {
          "internalType": "bytes",
          "name": "data",
          "type": "bytes"
        }
      ],
      "name": "safeTransferFrom",
      "outputs": [],
      "stateMutability": "nonpayable",
      "type": "function"
    },
    {
      "inputs": [
        {
          "internalType": "address",
          "name": "operator",
          "type": "address"
        },
        {
          "internalType": "bool",
          "name": "approved",
          "type": "bool"
        }
      ],
      "name": "setApprovalForAll",
      "outputs": [],
      "stateMutability": "nonpayable",
      "type": "function"
    },
    {
      "inputs": [
        {
          "internalType": "bytes4",
          "name": "interfaceId",
          "type": "bytes4"
        }
      ],
      "name": "supportsInterface",
      "outputs": [
        {
          "internalType": "bool",
          "name": "",
          "type": "bool"
        }
      ],
      "stateMutability": "view",
      "type": "function"
    },
    {
      "inputs": [],
      "name": "symbol",
      "outputs": [
        {
          "internalType": "string",
          "name": "",
          "type": "string"
        }
      ],
      "stateMutability": "view",
      "type": "function"
    },
    {
      "inputs": [
        {
          "internalType": "uint256",
          "name": "_tokenId",
          "type": "uint256"
        }
      ],
      "name": "tokenURI",
      "outputs": [
        {
          "internalType": "string",
          "name": "",
          "type": "string"
        }
      ],
      "stateMutability": "view",
      "type": "function"
    },
    {
      "inputs": [
        {
          "internalType": "address",
          "name": "from",
          "type": "address"
        },
        {
          "internalType": "address",
          "name": "to",
          "type": "address"
        },
        {
          "internalType": "uint256",
          "name": "tokenId",
          "type": "uint256"
        }
      ],
      "name": "transferFrom",
      "outputs": [],
      "stateMutability": "nonpayable",
      "type": "function"
    }
  ],
  "bytecode": "0x60806040523480156200001157600080fd5b506040518060400160405280601381526020017f50726f6d707457697a61726473274775696c64000000000000000000000000008152506040518060400160405280600381526020017f5057470000000000000000000000000000000000000000000000000000000000815250816000908051906020019062000096929190620001cf565b508060019080519060200190620000af929190620001cf565b505050620000fd6040518060400160405280601881526020017f54686973206973206d79204e465420636f6e74726163742e00000000000000008152506200010360201b62000beb1760201c565b620003ac565b620001a3816040516024016200011a919062000323565b6040516020818303038152906040527f41304fac000000000000000000000000000000000000000000000000000000007bffffffffffffffffffffffffffffffffffffffffffffffffffffffff19166020820180517bffffffffffffffffffffffffffffffffffffffffffffffffffffffff8381831617835250505050620001a660201b60201c565b50565b60008151905060006a636f6e736f6c652e6c6f679050602083016000808483855afa5050505050565b828054620001dd9062000376565b90600052602060002090601f0160209004810192826200020157600085556200024d565b82601f106200021c57805160ff19168380011785556200024d565b828001600101855582156200024d579182015b828111156200024c5782518255916020019190600101906200022f565b5b5090506200025c919062000260565b5090565b5b808211156200027b57600081600090555060010162000261565b5090565b600081519050919050565b600082825260208201905092915050565b60005b83811015620002bb5780820151818401526020810190506200029e565b83811115620002cb576000848401525b50505050565b6000601f19601f8301169050919050565b6000620002ef826200027f565b620002fb81856200028a565b93506200030d8185602086016200029b565b6200031881620002d1565b840191505092915050565b600060208201905081810360008301526200033f8184620002e2565b905092915050565b7f4e487b7100000000000000000000000000000000000000000000000000000000600052602260045260246000fd5b600060028204905060018216806200038f57607f821691505b60208210811415620003a657620003a562000347565b5b50919050565b61331280620003bc6000396000f3fe608060405234801561001057600080fd5b50600436106100ea5760003560e01c806370a082311161008c578063b88d4fde11610066578063b88d4fde1461025b578063c87b56dd14610277578063e985e9c5146102a7578063f40472e7146102d7576100ea565b806370a08231146101f157806395d89b4114610221578063a22cb4651461023f576100ea565b8063095ea7b3116100c8578063095ea7b31461016d57806323b872dd1461018957806342842e0e146101a55780636352211e146101c1576100ea565b806301ffc9a7146100ef57806306fdde031461011f578063081812fc1461013d575b600080fd5b61010960048036038101906101049190611cc5565b6102f3565b6040516101169190611d0d565b60405180910390f35b6101276103d5565b6040516101349190611dc1565b60405180910390f35b61015760048036038101906101529190611e19565b610467565b6040516101649190611e87565b60405180910390f35b61018760048036038101906101829190611ece565b6104ad565b005b6101a3600480360381019061019e9190611f0e565b6105c5565b005b6101bf60048036038101906101ba9190611f0e565b610625565b005b6101db60048036038101906101d69190611e19565b610645565b6040516101e89190611e87565b60405180910390f35b61020b60048036038101906102069190611f61565b6106f7565b6040516102189190611f9d565b60405180910390f35b6102296107af565b6040516102369190611dc1565b60405180910390f35b61025960048036038101906102549190611fe4565b610841565b005b61027560048036038101906102709190612159565b610857565b005b610291600480360381019061028c9190611e19565b6108b9565b60405161029e9190611dc1565b60405180910390f35b6102c160048036038101906102bc91906121dc565b610a01565b6040516102ce9190611d0d565b60405180910390f35b6102f160048036038101906102ec91906122bd565b610a95565b005b60007f80ac58cd000000000000000000000000000000000000000000000000000000007bffffffffffffffffffffffffffffffffffffffffffffffffffffffff1916827bffffffffffffffffffffffffffffffffffffffffffffffffffffffff191614806103be57507f5b5e139f000000000000000000000000000000000000000000000000000000007bffffffffffffffffffffffffffffffffffffffffffffffffffffffff1916827bffffffffffffffffffffffffffffffffffffffffffffffffffffffff1916145b806103ce57506103cd82610c84565b5b9050919050565b6060600080546103e490612421565b80601f016020809104026020016040519081016040528092919081815260200182805461041090612421565b801561045d5780601f106104325761010080835404028352916020019161045d565b820191906000526020600020905b81548152906001019060200180831161044057829003601f168201915b5050505050905090565b600061047282610cee565b6004600083815260200190815260200160002060009054906101000a900473ffffffffffffffffffffffffffffffffffffffff169050919050565b60006104b882610645565b90508073ffffffffffffffffffffffffffffffffffffffff168373ffffffffffffffffffffffffffffffffffffffff161415610529576040517f08c379a0000000000000000000000000000000000000000000000000000000008152600401610520906124c5565b60405180910390fd5b8073ffffffffffffffffffffffffffffffffffffffff16610548610d39565b73ffffffffffffffffffffffffffffffffffffffff161480610577575061057681610571610d39565b610a01565b5b6105b6576040517f08c379a00000000000000000000000000000000000000000000000000000000081526004016105ad90612557565b60405180910390fd5b6105c08383610d41565b505050565b6105d66105d0610d39565b82610dfa565b610615576040517f08c379a000000000000000000000000000000000000000000000000000000000815260040161060c906125e9565b60405180910390fd5b610620838383610e8f565b505050565b61064083838360405180602001604052806000815250610857565b505050565b6000806002600084815260200190815260200160002060009054906101000a900473ffffffffffffffffffffffffffffffffffffffff169050600073ffffffffffffffffffffffffffffffffffffffff168173ffffffffffffffffffffffffffffffffffffffff1614156106ee576040517f08c379a00000000000000000000000000000000000000000000000000000000081526004016106e590612655565b60405180910390fd5b80915050919050565b60008073ffffffffffffffffffffffffffffffffffffffff168273ffffffffffffffffffffffffffffffffffffffff161415610768576040517f08c379a000000000000000000000000000000000000000000000000000000000815260040161075f906126e7565b60405180910390fd5b600360008373ffffffffffffffffffffffffffffffffffffffff1673ffffffffffffffffffffffffffffffffffffffff168152602001908152602001600020549050919050565b6060600180546107be90612421565b80601f01602080910402602001604051908101604052809291908181526020018280546107ea90612421565b80156108375780601f1061080c57610100808354040283529160200191610837565b820191906000526020600020905b81548152906001019060200180831161081a57829003601f168201915b5050505050905090565b61085361084c610d39565b83836110f6565b5050565b610868610862610d39565b83610dfa565b6108a7576040517f08c379a000000000000000000000000000000000000000000000000000000000815260040161089e906125e9565b60405180910390fd5b6108b384848484611263565b50505050565b606060006109d1600684815481106108d4576108d3612707565b5b90600052602060002090600602016000016108ee856112bf565b6006868154811061090257610901612707565b5b90600052602060002090600602016002016006878154811061092757610926612707565b5b90600052602060002090600602016001016006888154811061094c5761094b612707565b5b90600052602060002090600602016003016006898154811061097157610970612707565b5b906000526020600020906006020160040160068a8154811061099657610995612707565b5b90600052602060002090600602016005016040516020016109bd9796959493929190612ad8565b604051602081830303815290604052611420565b90506000816040516020016109e69190612be1565b60405160208183030381529060405290508092505050919050565b6000600560008473ffffffffffffffffffffffffffffffffffffffff1673ffffffffffffffffffffffffffffffffffffffff16815260200190815260200160002060008373ffffffffffffffffffffffffffffffffffffffff1673ffffffffffffffffffffffffffffffffffffffff16815260200190815260200160002060009054906101000a900460ff16905092915050565b6000610aa160076115b8565b9050610aad33826115c6565b60066040518060c001604052808981526020018781526020018881526020018681526020018581526020018481525090806001815401808255809150506001900390600052602060002090600602016000909190919091506000820151816000019080519060200190610b21929190611bb6565b506020820151816001019080519060200190610b3e929190611bb6565b506040820151816002019080519060200190610b5b929190611bb6565b506060820151816003019080519060200190610b78929190611bb6565b506080820151816004019080519060200190610b95929190611bb6565b5060a0820151816005019080519060200190610bb2929190611bb6565b505050610bd86040518060600160405280602581526020016132786025913982336115e4565b610be26007611683565b50505050505050565b610c8181604051602401610bff9190611dc1565b6040516020818303038152906040527f41304fac000000000000000000000000000000000000000000000000000000007bffffffffffffffffffffffffffffffffffffffffffffffffffffffff19166020820180517bffffffffffffffffffffffffffffffffffffffffffffffffffffffff8381831617835250505050611699565b50565b60007f01ffc9a7000000000000000000000000000000000000000000000000000000007bffffffffffffffffffffffffffffffffffffffffffffffffffffffff1916827bffffffffffffffffffffffffffffffffffffffffffffffffffffffff1916149050919050565b610cf7816116c2565b610d36576040517f08c379a0000000000000000000000000000000000000000000000000000000008152600401610d2d90612655565b60405180910390fd5b50565b600033905090565b816004600083815260200190815260200160002060006101000a81548173ffffffffffffffffffffffffffffffffffffffff021916908373ffffffffffffffffffffffffffffffffffffffff160217905550808273ffffffffffffffffffffffffffffffffffffffff16610db483610645565b73ffffffffffffffffffffffffffffffffffffffff167f8c5be1e5ebec7d5bd14f71427d1e84f3dd0314c0f7b2291e5b200ac8c7c3b92560405160405180910390a45050565b600080610e0683610645565b90508073ffffffffffffffffffffffffffffffffffffffff168473ffffffffffffffffffffffffffffffffffffffff161480610e485750610e478185610a01565b5b80610e8657508373ffffffffffffffffffffffffffffffffffffffff16610e6e84610467565b73ffffffffffffffffffffffffffffffffffffffff16145b91505092915050565b8273ffffffffffffffffffffffffffffffffffffffff16610eaf82610645565b73ffffffffffffffffffffffffffffffffffffffff1614610f05576040517f08c379a0000000000000000000000000000000000000000000000000000000008152600401610efc90612c75565b60405180910390fd5b600073ffffffffffffffffffffffffffffffffffffffff168273ffffffffffffffffffffffffffffffffffffffff161415610f75576040517f08c379a0000000000000000000000000000000000000000000000000000000008152600401610f6c90612d07565b60405180910390fd5b610f8083838361172e565b610f8b600082610d41565b6001600360008573ffffffffffffffffffffffffffffffffffffffff1673ffffffffffffffffffffffffffffffffffffffff1681526020019081526020016000206000828254610fdb9190612d56565b925050819055506001600360008473ffffffffffffffffffffffffffffffffffffffff1673ffffffffffffffffffffffffffffffffffffffff16815260200190815260200160002060008282546110329190612d8a565b92505081905550816002600083815260200190815260200160002060006101000a81548173ffffffffffffffffffffffffffffffffffffffff021916908373ffffffffffffffffffffffffffffffffffffffff160217905550808273ffffffffffffffffffffffffffffffffffffffff168473ffffffffffffffffffffffffffffffffffffffff167fddf252ad1be2c89b69c2b068fc378daa952ba7f163c4a11628f55a4df523b3ef60405160405180910390a46110f18383836117ad565b505050565b8173ffffffffffffffffffffffffffffffffffffffff168373ffffffffffffffffffffffffffffffffffffffff161415611165576040517f08c379a000000000000000000000000000000000000000000000000000000000815260040161115c90612e2c565b60405180910390fd5b80600560008573ffffffffffffffffffffffffffffffffffffffff1673ffffffffffffffffffffffffffffffffffffffff16815260200190815260200160002060008473ffffffffffffffffffffffffffffffffffffffff1673ffffffffffffffffffffffffffffffffffffffff16815260200190815260200160002060006101000a81548160ff0219169083151502179055508173ffffffffffffffffffffffffffffffffffffffff168373ffffffffffffffffffffffffffffffffffffffff167f17307eab39ab6107e8899845ad3d59bd9653f200f220920489ca2b5937696c31836040516112569190611d0d565b60405180910390a3505050565b61126e848484610e8f565b61127a848484846117bd565b6112b9576040517f08c379a00000000000000000000000000000000000000000000000000000000081526004016112b090612ebe565b60405180910390fd5b50505050565b60606000821415611307576040518060400160405280600181526020017f3000000000000000000000000000000000000000000000000000000000000000815250905061141b565b600082905060005b6000821461133957808061132290612ede565b915050600a826113329190612f56565b915061130f565b60008167ffffffffffffffff8111156113555761135461202e565b5b6040519080825280601f01601f1916602001820160405280156113875781602001600182028036833780820191505090505b5090505b60008514611414576001826113a09190612d56565b9150600a856113af9190612f87565b60306113bb9190612d8a565b60f81b8183815181106113d1576113d0612707565b5b60200101907effffffffffffffffffffffffffffffffffffffffffffffffffffffffffffff1916908160001a905350600a8561140d9190612f56565b945061138b565b8093505050505b919050565b6060600082519050600081141561144957604051806020016040528060008152509150506115b3565b6000600360028361145a9190612d8a565b6114649190612f56565b60046114709190612fb8565b905060006020826114819190612d8a565b67ffffffffffffffff81111561149a5761149961202e565b5b6040519080825280601f01601f1916602001820160405280156114cc5781602001600182028036833780820191505090505b509050600060405180606001604052806040815260200161329d604091399050600181016020830160005b868110156115705760038101905062ffffff818a015116603f8160121c168401518060081b905060ff603f83600c1c1686015116810190508060081b905060ff603f8360061c1686015116810190508060081b905060ff603f831686015116810190508060e01b905080845260048401935050506114f7565b50600386066001811461158a576002811461159a576115a5565b613d3d60f01b60028303526115a5565b603d60f81b60018303525b508484525050819450505050505b919050565b600081600001549050919050565b6115e0828260405180602001604052806000815250611954565b5050565b61167e8383836040516024016115fc93929190613012565b6040516020818303038152906040527f1c7ec448000000000000000000000000000000000000000000000000000000007bffffffffffffffffffffffffffffffffffffffffffffffffffffffff19166020820180517bffffffffffffffffffffffffffffffffffffffffffffffffffffffff8381831617835250505050611699565b505050565b6001816000016000828254019250508190555050565b60008151905060006a636f6e736f6c652e6c6f679050602083016000808483855afa5050505050565b60008073ffffffffffffffffffffffffffffffffffffffff166002600084815260200190815260200160002060009054906101000a900473ffffffffffffffffffffffffffffffffffffffff1673ffffffffffffffffffffffffffffffffffffffff1614159050919050565b600073ffffffffffffffffffffffffffffffffffffffff168373ffffffffffffffffffffffffffffffffffffffff161461179d576040517f08c379a00000000000000000000000000000000000000000000000000000000081526004016117949061309c565b60405180910390fd5b6117a88383836119af565b505050565b6117b88383836119b4565b505050565b60006117de8473ffffffffffffffffffffffffffffffffffffffff166119b9565b15611947578373ffffffffffffffffffffffffffffffffffffffff1663150b7a02611807610d39565b8786866040518563ffffffff1660e01b81526004016118299493929190613111565b602060405180830381600087803b15801561184357600080fd5b505af192505050801561187457506040513d601f19601f820116820180604052508101906118719190613172565b60015b6118f7573d80600081146118a4576040519150601f19603f3d011682016040523d82523d6000602084013e6118a9565b606091505b506000815114156118ef576040517f08c379a00000000000000000000000000000000000000000000000000000000081526004016118e690612ebe565b60405180910390fd5b805181602001fd5b63150b7a0260e01b7bffffffffffffffffffffffffffffffffffffffffffffffffffffffff1916817bffffffffffffffffffffffffffffffffffffffffffffffffffffffff19161491505061194c565b600190505b949350505050565b61195e83836119dc565b61196b60008484846117bd565b6119aa576040517f08c379a00000000000000000000000000000000000000000000000000000000081526004016119a190612ebe565b60405180910390fd5b505050565b505050565b505050565b6000808273ffffffffffffffffffffffffffffffffffffffff163b119050919050565b600073ffffffffffffffffffffffffffffffffffffffff168273ffffffffffffffffffffffffffffffffffffffff161415611a4c576040517f08c379a0000000000000000000000000000000000000000000000000000000008152600401611a43906131eb565b60405180910390fd5b611a55816116c2565b15611a95576040517f08c379a0000000000000000000000000000000000000000000000000000000008152600401611a8c90613257565b60405180910390fd5b611aa16000838361172e565b6001600360008473ffffffffffffffffffffffffffffffffffffffff1673ffffffffffffffffffffffffffffffffffffffff1681526020019081526020016000206000828254611af19190612d8a565b92505081905550816002600083815260200190815260200160002060006101000a81548173ffffffffffffffffffffffffffffffffffffffff021916908373ffffffffffffffffffffffffffffffffffffffff160217905550808273ffffffffffffffffffffffffffffffffffffffff16600073ffffffffffffffffffffffffffffffffffffffff167fddf252ad1be2c89b69c2b068fc378daa952ba7f163c4a11628f55a4df523b3ef60405160405180910390a4611bb2600083836117ad565b5050565b828054611bc290612421565b90600052602060002090601f016020900481019282611be45760008555611c2b565b82601f10611bfd57805160ff1916838001178555611c2b565b82800160010185558215611c2b579182015b82811115611c2a578251825591602001919060010190611c0f565b5b509050611c389190611c3c565b5090565b5b80821115611c55576000816000905550600101611c3d565b5090565b6000604051905090565b600080fd5b600080fd5b60007fffffffff0000000000000000000000000000000000000000000000000000000082169050919050565b611ca281611c6d565b8114611cad57600080fd5b50565b600081359050611cbf81611c99565b92915050565b600060208284031215611cdb57611cda611c63565b5b6000611ce984828501611cb0565b91505092915050565b60008115159050919050565b611d0781611cf2565b82525050565b6000602082019050611d226000830184611cfe565b92915050565b600081519050919050565b600082825260208201905092915050565b60005b83811015611d62578082015181840152602081019050611d47565b83811115611d71576000848401525b50505050565b6000601f19601f8301169050919050565b6000611d9382611d28565b611d9d8185611d33565b9350611dad818560208601611d44565b611db681611d77565b840191505092915050565b60006020820190508181036000830152611ddb8184611d88565b905092915050565b6000819050919050565b611df681611de3565b8114611e0157600080fd5b50565b600081359050611e1381611ded565b92915050565b600060208284031215611e2f57611e2e611c63565b5b6000611e3d84828501611e04565b91505092915050565b600073ffffffffffffffffffffffffffffffffffffffff82169050919050565b6000611e7182611e46565b9050919050565b611e8181611e66565b82525050565b6000602082019050611e9c6000830184611e78565b92915050565b611eab81611e66565b8114611eb657600080fd5b50565b600081359050611ec881611ea2565b92915050565b60008060408385031215611ee557611ee4611c63565b5b6000611ef385828601611eb9565b9250506020611f0485828601611e04565b9150509250929050565b600080600060608486031215611f2757611f26611c63565b5b6000611f3586828701611eb9565b9350506020611f4686828701611eb9565b9250506040611f5786828701611e04565b9150509250925092565b600060208284031215611f7757611f76611c63565b5b6000611f8584828501611eb9565b91505092915050565b611f9781611de3565b82525050565b6000602082019050611fb26000830184611f8e565b92915050565b611fc181611cf2565b8114611fcc57600080fd5b50565b600081359050611fde81611fb8565b92915050565b60008060408385031215611ffb57611ffa611c63565b5b600061200985828601611eb9565b925050602061201a85828601611fcf565b9150509250929050565b600080fd5b600080fd5b7f4e487b7100000000000000000000000000000000000000000000000000000000600052604160045260246000fd5b61206682611d77565b810181811067ffffffffffffffff821117156120855761208461202e565b5b80604052505050565b6000612098611c59565b90506120a4828261205d565b919050565b600067ffffffffffffffff8211156120c4576120c361202e565b5b6120cd82611d77565b9050602081019050919050565b82818337600083830152505050565b60006120fc6120f7846120a9565b61208e565b90508281526020810184848401111561211857612117612029565b5b6121238482856120da565b509392505050565b600082601f8301126121405761213f612024565b5b81356121508482602086016120e9565b91505092915050565b6000806000806080858703121561217357612172611c63565b5b600061218187828801611eb9565b945050602061219287828801611eb9565b93505060406121a387828801611e04565b925050606085013567ffffffffffffffff8111156121c4576121c3611c68565b5b6121d08782880161212b565b91505092959194509250565b600080604083850312156121f3576121f2611c63565b5b600061220185828601611eb9565b925050602061221285828601611eb9565b9150509250929050565b600067ffffffffffffffff8211156122375761223661202e565b5b61224082611d77565b9050602081019050919050565b600061226061225b8461221c565b61208e565b90508281526020810184848401111561227c5761227b612029565b5b6122878482856120da565b509392505050565b600082601f8301126122a4576122a3612024565b5b81356122b484826020860161224d565b91505092915050565b60008060008060008060c087890312156122da576122d9611c63565b5b600087013567ffffffffffffffff8111156122f8576122f7611c68565b5b61230489828a0161228f565b965050602087013567ffffffffffffffff81111561232557612324611c68565b5b61233189828a0161228f565b955050604087013567ffffffffffffffff81111561235257612351611c68565b5b61235e89828a0161228f565b945050606087013567ffffffffffffffff81111561237f5761237e611c68565b5b61238b89828a0161228f565b935050608087013567ffffffffffffffff8111156123ac576123ab611c68565b5b6123b889828a0161228f565b92505060a087013567ffffffffffffffff8111156123d9576123d8611c68565b5b6123e589828a0161228f565b9150509295509295509295565b7f4e487b7100000000000000000000000000000000000000000000000000000000600052602260045260246000fd5b6000600282049050600182168061243957607f821691505b6020821081141561244d5761244c6123f2565b5b50919050565b7f4552433732313a20617070726f76616c20746f2063757272656e74206f776e6560008201527f7200000000000000000000000000000000000000000000000000000000000000602082015250565b60006124af602183611d33565b91506124ba82612453565b604082019050919050565b600060208201905081810360008301526124de816124a2565b9050919050565b7f4552433732313a20617070726f76652063616c6c6572206973206e6f7420746f60008201527f6b656e206f776e6572206e6f7220617070726f76656420666f7220616c6c0000602082015250565b6000612541603e83611d33565b915061254c826124e5565b604082019050919050565b6000602082019050818103600083015261257081612534565b9050919050565b7f4552433732313a2063616c6c6572206973206e6f7420746f6b656e206f776e6560008201527f72206e6f7220617070726f766564000000000000000000000000000000000000602082015250565b60006125d3602e83611d33565b91506125de82612577565b604082019050919050565b60006020820190508181036000830152612602816125c6565b9050919050565b7f4552433732313a20696e76616c696420746f6b656e2049440000000000000000600082015250565b600061263f601883611d33565b915061264a82612609565b602082019050919050565b6000602082019050818103600083015261266e81612632565b9050919050565b7f4552433732313a2061646472657373207a65726f206973206e6f74206120766160008201527f6c6964206f776e65720000000000000000000000000000000000000000000000602082015250565b60006126d1602983611d33565b91506126dc82612675565b604082019050919050565b60006020820190508181036000830152612700816126c4565b9050919050565b7f4e487b7100000000000000000000000000000000000000000000000000000000600052603260045260246000fd5b600081905092915050565b7f7b226e616d65223a202200000000000000000000000000000000000000000000600082015250565b6000612777600a83612736565b915061278282612741565b600a82019050919050565b60008190508160005260206000209050919050565b600081546127af81612421565b6127b98186612736565b945060018216600081146127d457600181146127e557612818565b60ff19831686528186019350612818565b6127ee8561278d565b60005b83811015612810578154818901526001820191506020810190506127f1565b838801955050505b50505092915050565b7f202d2d204e465420233a20000000000000000000000000000000000000000000600082015250565b6000612857600b83612736565b915061286282612821565b600b82019050919050565b600061287882611d28565b6128828185612736565b9350612892818560208601611d44565b80840191505092915050565b7f222c20226465736372697074696f6e223a202200000000000000000000000000600082015250565b60006128d4601383612736565b91506128df8261289e565b601382019050919050565b7f222c2022696d616765223a2022697066733a2f2f000000000000000000000000600082015250565b6000612920601483612736565b915061292b826128ea565b601482019050919050565b7f222c226174747269627574657322203a205b207b2274726169745f747970652260008201527f3a202273656564222c202276616c756522203a20220000000000000000000000602082015250565b6000612992603583612736565b915061299d82612936565b603582019050919050565b7f227d2c7b2274726169745f74797065223a2022686569676874222c202276616c60008201527f756522203a202200000000000000000000000000000000000000000000000000602082015250565b6000612a04602783612736565b9150612a0f826129a8565b602782019050919050565b7f227d2c7b2274726169745f74797065223a20227769647468222c202276616c7560008201527f6522203a20220000000000000000000000000000000000000000000000000000602082015250565b6000612a76602683612736565b9150612a8182612a1a565b602682019050919050565b7f227d5d7d00000000000000000000000000000000000000000000000000000000600082015250565b6000612ac2600483612736565b9150612acd82612a8c565b600482019050919050565b6000612ae38261276a565b9150612aef828a6127a2565b9150612afa8261284a565b9150612b06828961286d565b9150612b11826128c7565b9150612b1d82886127a2565b9150612b2882612913565b9150612b3482876127a2565b9150612b3f82612985565b9150612b4b82866127a2565b9150612b56826129f7565b9150612b6282856127a2565b9150612b6d82612a69565b9150612b7982846127a2565b9150612b8482612ab5565b915081905098975050505050505050565b7f646174613a6170706c69636174696f6e2f6a736f6e3b6261736536342c000000600082015250565b6000612bcb601d83612736565b9150612bd682612b95565b601d82019050919050565b6000612bec82612bbe565b9150612bf8828461286d565b915081905092915050565b7f4552433732313a207472616e736665722066726f6d20696e636f72726563742060008201527f6f776e6572000000000000000000000000000000000000000000000000000000602082015250565b6000612c5f602583611d33565b9150612c6a82612c03565b604082019050919050565b60006020820190508181036000830152612c8e81612c52565b9050919050565b7f4552433732313a207472616e7366657220746f20746865207a65726f2061646460008201527f7265737300000000000000000000000000000000000000000000000000000000602082015250565b6000612cf1602483611d33565b9150612cfc82612c95565b604082019050919050565b60006020820190508181036000830152612d2081612ce4565b9050919050565b7f4e487b7100000000000000000000000000000000000000000000000000000000600052601160045260246000fd5b6000612d6182611de3565b9150612d6c83611de3565b925082821015612d7f57612d7e612d27565b5b828203905092915050565b6000612d9582611de3565b9150612da083611de3565b9250827fffffffffffffffffffffffffffffffffffffffffffffffffffffffffffffffff03821115612dd557612dd4612d27565b5b828201905092915050565b7f4552433732313a20617070726f766520746f2063616c6c657200000000000000600082015250565b6000612e16601983611d33565b9150612e2182612de0565b602082019050919050565b60006020820190508181036000830152612e4581612e09565b9050919050565b7f4552433732313a207472616e7366657220746f206e6f6e20455243373231526560008201527f63656976657220696d706c656d656e7465720000000000000000000000000000602082015250565b6000612ea8603283611d33565b9150612eb382612e4c565b604082019050919050565b60006020820190508181036000830152612ed781612e9b565b9050919050565b6000612ee982611de3565b91507fffffffffffffffffffffffffffffffffffffffffffffffffffffffffffffffff821415612f1c57612f1b612d27565b5b600182019050919050565b7f4e487b7100000000000000000000000000000000000000000000000000000000600052601260045260246000fd5b6000612f6182611de3565b9150612f6c83611de3565b925082612f7c57612f7b612f27565b5b828204905092915050565b6000612f9282611de3565b9150612f9d83611de3565b925082612fad57612fac612f27565b5b828206905092915050565b6000612fc382611de3565b9150612fce83611de3565b9250817fffffffffffffffffffffffffffffffffffffffffffffffffffffffffffffffff048311821515161561300757613006612d27565b5b828202905092915050565b6000606082019050818103600083015261302c8186611d88565b905061303b6020830185611f8e565b6130486040830184611e78565b949350505050565b7f4572723a20746f6b656e20697320534f554c20424f554e440000000000000000600082015250565b6000613086601883611d33565b915061309182613050565b602082019050919050565b600060208201905081810360008301526130b581613079565b9050919050565b600081519050919050565b600082825260208201905092915050565b60006130e3826130bc565b6130ed81856130c7565b93506130fd818560208601611d44565b61310681611d77565b840191505092915050565b60006080820190506131266000830187611e78565b6131336020830186611e78565b6131406040830185611f8e565b818103606083015261315281846130d8565b905095945050505050565b60008151905061316c81611c99565b92915050565b60006020828403121561318857613187611c63565b5b60006131968482850161315d565b91505092915050565b7f4552433732313a206d696e7420746f20746865207a65726f2061646472657373600082015250565b60006131d5602083611d33565b91506131e08261319f565b602082019050919050565b60006020820190508181036000830152613204816131c8565b9050919050565b7f4552433732313a20746f6b656e20616c7265616479206d696e74656400000000600082015250565b6000613241601c83611d33565b915061324c8261320b565b602082019050919050565b6000602082019050818103600083015261327081613234565b905091905056fe416e204e465420772f20494420257320686173206265656e206d696e74656420746f2025734142434445464748494a4b4c4d4e4f505152535455565758595a6162636465666768696a6b6c6d6e6f707172737475767778797a303132333435363738392b2fa264697066735822122053a94715bd6eea37e4542ea17c1dee76102dd84c2fd3cb7d1e6714a60b96eccc64736f6c63430008090033",
  "linkReferences": {},
  "deployedLinkReferences": {}
}